{
  "_format": "hh-sol-artifact-1",
  "contractName": "FairTradeCertificate",
  "sourceName": "contracts/fair-trade-certificate.sol",
  "abi": [
    {
      "inputs": [],
      "stateMutability": "nonpayable",
      "type": "constructor"
    },
    {
      "anonymous": false,
      "inputs": [
        {
          "indexed": true,
          "internalType": "address",
          "name": "owner",
          "type": "address"
        },
        {
          "indexed": true,
          "internalType": "address",
          "name": "approved",
          "type": "address"
        },
        {
          "indexed": true,
          "internalType": "uint256",
          "name": "tokenId",
          "type": "uint256"
        }
      ],
      "name": "Approval",
      "type": "event"
    },
    {
      "anonymous": false,
      "inputs": [
        {
          "indexed": true,
          "internalType": "address",
          "name": "owner",
          "type": "address"
        },
        {
          "indexed": true,
          "internalType": "address",
          "name": "operator",
          "type": "address"
        },
        {
          "indexed": false,
          "internalType": "bool",
          "name": "approved",
          "type": "bool"
        }
      ],
      "name": "ApprovalForAll",
      "type": "event"
    },
    {
      "anonymous": false,
      "inputs": [
        {
          "indexed": false,
          "internalType": "uint256",
          "name": "_fromTokenId",
          "type": "uint256"
        },
        {
          "indexed": false,
          "internalType": "uint256",
          "name": "_toTokenId",
          "type": "uint256"
        }
      ],
      "name": "BatchMetadataUpdate",
      "type": "event"
    },
    {
      "anonymous": false,
      "inputs": [
        {
          "indexed": true,
          "internalType": "uint256",
          "name": "tokenId",
          "type": "uint256"
        },
        {
          "indexed": true,
          "internalType": "address",
          "name": "recipient",
          "type": "address"
        },
        {
          "indexed": false,
          "internalType": "string",
          "name": "companyName",
          "type": "string"
        }
      ],
      "name": "CertificateIssued",
      "type": "event"
    },
    {
      "anonymous": false,
      "inputs": [
        {
          "indexed": true,
          "internalType": "uint256",
          "name": "tokenId",
          "type": "uint256"
        },
        {
          "indexed": false,
          "internalType": "uint256",
          "name": "newExpirationDate",
          "type": "uint256"
        }
      ],
      "name": "CertificateRenewed",
      "type": "event"
    },
    {
      "anonymous": false,
      "inputs": [
        {
          "indexed": true,
          "internalType": "uint256",
          "name": "tokenId",
          "type": "uint256"
        },
        {
          "indexed": false,
          "internalType": "string",
          "name": "reason",
          "type": "string"
        }
      ],
      "name": "CertificateRevoked",
      "type": "event"
    },
    {
      "anonymous": false,
      "inputs": [
        {
          "indexed": false,
          "internalType": "uint256",
          "name": "_tokenId",
          "type": "uint256"
        }
      ],
      "name": "MetadataUpdate",
      "type": "event"
    },
    {
      "anonymous": false,
      "inputs": [
        {
          "indexed": true,
          "internalType": "address",
          "name": "previousOwner",
          "type": "address"
        },
        {
          "indexed": true,
          "internalType": "address",
          "name": "newOwner",
          "type": "address"
        }
      ],
      "name": "OwnershipTransferred",
      "type": "event"
    },
    {
      "anonymous": false,
      "inputs": [
        {
          "indexed": true,
          "internalType": "address",
          "name": "from",
          "type": "address"
        },
        {
          "indexed": true,
          "internalType": "address",
          "name": "to",
          "type": "address"
        },
        {
          "indexed": true,
          "internalType": "uint256",
          "name": "tokenId",
          "type": "uint256"
        }
      ],
      "name": "Transfer",
      "type": "event"
    },
    {
      "inputs": [
        {
          "internalType": "address",
          "name": "to",
          "type": "address"
        },
        {
          "internalType": "uint256",
          "name": "tokenId",
          "type": "uint256"
        }
      ],
      "name": "approve",
      "outputs": [],
      "stateMutability": "nonpayable",
      "type": "function"
    },
    {
      "inputs": [
        {
          "internalType": "address",
          "name": "owner",
          "type": "address"
        }
      ],
      "name": "balanceOf",
      "outputs": [
        {
          "internalType": "uint256",
          "name": "",
          "type": "uint256"
        }
      ],
      "stateMutability": "view",
      "type": "function"
    },
    {
      "inputs": [
        {
          "internalType": "uint256",
          "name": "tokenId",
          "type": "uint256"
        }
      ],
      "name": "getApproved",
      "outputs": [
        {
          "internalType": "address",
          "name": "",
          "type": "address"
        }
      ],
      "stateMutability": "view",
      "type": "function"
    },
    {
      "inputs": [
        {
          "internalType": "address",
          "name": "company",
          "type": "address"
        }
      ],
      "name": "getCompanyCertificates",
      "outputs": [
        {
          "internalType": "uint256[]",
          "name": "",
          "type": "uint256[]"
        }
      ],
      "stateMutability": "view",
      "type": "function"
    },
    {
      "inputs": [
        {
          "internalType": "uint256",
          "name": "tokenId",
          "type": "uint256"
        }
      ],
      "name": "getCompanyInfo",
      "outputs": [
        {
          "internalType": "string",
          "name": "companyName",
          "type": "string"
        },
        {
          "internalType": "string",
          "name": "registrationNumber",
          "type": "string"
        },
        {
          "internalType": "uint256",
          "name": "certificationDate",
          "type": "uint256"
        },
        {
          "internalType": "uint256",
          "name": "expirationDate",
          "type": "uint256"
        }
      ],
      "stateMutability": "view",
      "type": "function"
    },
    {
      "inputs": [
        {
          "internalType": "address",
          "name": "owner",
          "type": "address"
        },
        {
          "internalType": "address",
          "name": "operator",
          "type": "address"
        }
      ],
      "name": "isApprovedForAll",
      "outputs": [
        {
          "internalType": "bool",
          "name": "",
          "type": "bool"
        }
      ],
      "stateMutability": "view",
      "type": "function"
    },
    {
      "inputs": [
        {
          "internalType": "uint256",
          "name": "tokenId",
          "type": "uint256"
        }
      ],
      "name": "isValid",
      "outputs": [
        {
          "internalType": "bool",
          "name": "",
          "type": "bool"
        }
      ],
      "stateMutability": "view",
      "type": "function"
    },
    {
      "inputs": [
        {
          "internalType": "address",
          "name": "to",
          "type": "address"
        },
        {
          "internalType": "string",
          "name": "companyName",
          "type": "string"
        },
        {
          "internalType": "string",
          "name": "registrationNumber",
          "type": "string"
        },
        {
          "internalType": "uint256",
          "name": "validityPeriod",
          "type": "uint256"
        },
        {
          "internalType": "string",
          "name": "uri",
          "type": "string"
        }
      ],
      "name": "issueCertificate",
      "outputs": [
        {
          "internalType": "uint256",
          "name": "",
          "type": "uint256"
        }
      ],
      "stateMutability": "nonpayable",
      "type": "function"
    },
    {
      "inputs": [],
      "name": "name",
      "outputs": [
        {
          "internalType": "string",
          "name": "",
          "type": "string"
        }
      ],
      "stateMutability": "view",
      "type": "function"
    },
    {
      "inputs": [],
      "name": "owner",
      "outputs": [
        {
          "internalType": "address",
          "name": "",
          "type": "address"
        }
      ],
      "stateMutability": "view",
      "type": "function"
    },
    {
      "inputs": [
        {
          "internalType": "uint256",
          "name": "tokenId",
          "type": "uint256"
        }
      ],
      "name": "ownerOf",
      "outputs": [
        {
          "internalType": "address",
          "name": "",
          "type": "address"
        }
      ],
      "stateMutability": "view",
      "type": "function"
    },
    {
      "inputs": [
        {
          "internalType": "uint256",
          "name": "tokenId",
          "type": "uint256"
        },
        {
          "internalType": "uint256",
          "name": "additionalPeriod",
          "type": "uint256"
        }
      ],
      "name": "renewCertificate",
      "outputs": [],
      "stateMutability": "nonpayable",
      "type": "function"
    },
    {
      "inputs": [],
      "name": "renounceOwnership",
      "outputs": [],
      "stateMutability": "nonpayable",
      "type": "function"
    },
    {
      "inputs": [
        {
          "internalType": "uint256",
          "name": "tokenId",
          "type": "uint256"
        },
        {
          "internalType": "string",
          "name": "reason",
          "type": "string"
        }
      ],
      "name": "revokeCertificate",
      "outputs": [],
      "stateMutability": "nonpayable",
      "type": "function"
    },
    {
      "inputs": [
        {
          "internalType": "address",
          "name": "from",
          "type": "address"
        },
        {
          "internalType": "address",
          "name": "to",
          "type": "address"
        },
        {
          "internalType": "uint256",
          "name": "tokenId",
          "type": "uint256"
        }
      ],
      "name": "safeTransferFrom",
      "outputs": [],
      "stateMutability": "nonpayable",
      "type": "function"
    },
    {
      "inputs": [
        {
          "internalType": "address",
          "name": "from",
          "type": "address"
        },
        {
          "internalType": "address",
          "name": "to",
          "type": "address"
        },
        {
          "internalType": "uint256",
          "name": "tokenId",
          "type": "uint256"
        },
        {
          "internalType": "bytes",
          "name": "data",
          "type": "bytes"
        }
      ],
      "name": "safeTransferFrom",
      "outputs": [],
      "stateMutability": "nonpayable",
      "type": "function"
    },
    {
      "inputs": [
        {
          "internalType": "address",
          "name": "operator",
          "type": "address"
        },
        {
          "internalType": "bool",
          "name": "approved",
          "type": "bool"
        }
      ],
      "name": "setApprovalForAll",
      "outputs": [],
      "stateMutability": "nonpayable",
      "type": "function"
    },
    {
      "inputs": [
        {
          "internalType": "bytes4",
          "name": "interfaceId",
          "type": "bytes4"
        }
      ],
      "name": "supportsInterface",
      "outputs": [
        {
          "internalType": "bool",
          "name": "",
          "type": "bool"
        }
      ],
      "stateMutability": "view",
      "type": "function"
    },
    {
      "inputs": [],
      "name": "symbol",
      "outputs": [
        {
          "internalType": "string",
          "name": "",
          "type": "string"
        }
      ],
      "stateMutability": "view",
      "type": "function"
    },
    {
      "inputs": [
        {
          "internalType": "uint256",
          "name": "tokenId",
          "type": "uint256"
        }
      ],
      "name": "tokenURI",
      "outputs": [
        {
          "internalType": "string",
          "name": "",
          "type": "string"
        }
      ],
      "stateMutability": "view",
      "type": "function"
    },
    {
      "inputs": [],
      "name": "totalCertificates",
      "outputs": [
        {
          "internalType": "uint256",
          "name": "",
          "type": "uint256"
        }
      ],
      "stateMutability": "view",
      "type": "function"
    },
    {
      "inputs": [
        {
          "internalType": "address",
          "name": "from",
          "type": "address"
        },
        {
          "internalType": "address",
          "name": "to",
          "type": "address"
        },
        {
          "internalType": "uint256",
          "name": "tokenId",
          "type": "uint256"
        }
      ],
      "name": "transferFrom",
      "outputs": [],
      "stateMutability": "nonpayable",
      "type": "function"
    },
    {
      "inputs": [
        {
          "internalType": "address",
          "name": "newOwner",
          "type": "address"
        }
      ],
      "name": "transferOwnership",
      "outputs": [],
      "stateMutability": "nonpayable",
      "type": "function"
    }
  ],
  "bytecode": "0x60806040523480156200001157600080fd5b506040518060400160405280601481526020017f46616972547261646543657274696669636174650000000000000000000000008152506040518060400160405280600381526020017f465443000000000000000000000000000000000000000000000000000000000081525081600090816200008f919062000412565b508060019081620000a1919062000412565b505050620000c4620000b8620000ca60201b60201c565b620000d260201b60201c565b620004f9565b600033905090565b6000600760009054906101000a900473ffffffffffffffffffffffffffffffffffffffff16905081600760006101000a81548173ffffffffffffffffffffffffffffffffffffffff021916908373ffffffffffffffffffffffffffffffffffffffff1602179055508173ffffffffffffffffffffffffffffffffffffffff168173ffffffffffffffffffffffffffffffffffffffff167f8be0079c531659141344cd1fd0a4f28419497f9722a3daafe3b4186f6b6457e060405160405180910390a35050565b600081519050919050565b7f4e487b7100000000000000000000000000000000000000000000000000000000600052604160045260246000fd5b7f4e487b7100000000000000000000000000000000000000000000000000000000600052602260045260246000fd5b600060028204905060018216806200021a57607f821691505b60208210810362000230576200022f620001d2565b5b50919050565b60008190508160005260206000209050919050565b60006020601f8301049050919050565b600082821b905092915050565b6000600883026200029a7fffffffffffffffffffffffffffffffffffffffffffffffffffffffffffffffff826200025b565b620002a686836200025b565b95508019841693508086168417925050509392505050565b6000819050919050565b6000819050919050565b6000620002f3620002ed620002e784620002be565b620002c8565b620002be565b9050919050565b6000819050919050565b6200030f83620002d2565b620003276200031e82620002fa565b84845462000268565b825550505050565b600090565b6200033e6200032f565b6200034b81848462000304565b505050565b5b8181101562000373576200036760008262000334565b60018101905062000351565b5050565b601f821115620003c2576200038c8162000236565b62000397846200024b565b81016020851015620003a7578190505b620003bf620003b6856200024b565b83018262000350565b50505b505050565b600082821c905092915050565b6000620003e760001984600802620003c7565b1980831691505092915050565b6000620004028383620003d4565b9150826002028217905092915050565b6200041d8262000198565b67ffffffffffffffff811115620004395762000438620001a3565b5b62000445825462000201565b6200045282828562000377565b600060209050601f8311600181146200048a576000841562000475578287015190505b620004818582620003f4565b865550620004f1565b601f1984166200049a8662000236565b60005b82811015620004c4578489015182556001820191506020850194506020810190506200049d565b86831015620004e45784890151620004e0601f891682620003d4565b8355505b6001600288020188555050505b505050505050565b613d0e80620005096000396000f3fe608060405234801561001057600080fd5b506004361061014d5760003560e01c80637d5ed69d116100c3578063bbf3c8771161007c578063bbf3c8771461039f578063c0866e27146103bb578063c87b56dd146103eb578063e985e9c51461041b578063f2fde38b1461044b578063f577a500146104675761014d565b80637d5ed69d146102dc5780638da5cb5b1461030f57806395d89b411461032d578063a22cb4651461034b578063b1466d1d14610367578063b88d4fde146103835761014d565b806342842e0e1161011557806342842e0e146102085780634a321d2e14610224578063596b772f146102545780636352211e1461027257806370a08231146102a2578063715018a6146102d25761014d565b806301ffc9a71461015257806306fdde0314610182578063081812fc146101a0578063095ea7b3146101d057806323b872dd146101ec575b600080fd5b61016c600480360381019061016791906126d2565b610497565b604051610179919061271a565b60405180910390f35b61018a6104a9565b60405161019791906127c5565b60405180910390f35b6101ba60048036038101906101b5919061281d565b61053b565b6040516101c7919061288b565b60405180910390f35b6101ea60048036038101906101e591906128d2565b610581565b005b61020660048036038101906102019190612912565b610698565b005b610222600480360381019061021d9190612912565b6106f8565b005b61023e60048036038101906102399190612a9a565b610718565b60405161024b9190612b78565b60405180910390f35b61025c6108a3565b6040516102699190612b78565b60405180910390f35b61028c6004803603810190610287919061281d565b6108ad565b604051610299919061288b565b60405180910390f35b6102bc60048036038101906102b79190612b93565b610933565b6040516102c99190612b78565b60405180910390f35b6102da6109ea565b005b6102f660048036038101906102f1919061281d565b6109fe565b6040516103069493929190612bc0565b60405180910390f35b610317610bca565b604051610324919061288b565b60405180910390f35b610335610bf4565b60405161034291906127c5565b60405180910390f35b61036560048036038101906103609190612c3f565b610c86565b005b610381600480360381019061037c9190612c7f565b610c9c565b005b61039d60048036038101906103989190612d7c565b610e45565b005b6103b960048036038101906103b49190612dff565b610ea7565b005b6103d560048036038101906103d09190612b93565b610f78565b6040516103e29190612efd565b60405180910390f35b6104056004803603810190610400919061281d565b61100f565b60405161041291906127c5565b60405180910390f35b61043560048036038101906104309190612f1f565b611021565b604051610442919061271a565b60405180910390f35b61046560048036038101906104609190612b93565b6110b5565b005b610481600480360381019061047c919061281d565b611138565b60405161048e919061271a565b60405180910390f35b60006104a2826111a3565b9050919050565b6060600080546104b890612f8e565b80601f01602080910402602001604051908101604052809291908181526020018280546104e490612f8e565b80156105315780601f1061050657610100808354040283529160200191610531565b820191906000526020600020905b81548152906001019060200180831161051457829003601f168201915b5050505050905090565b600061054682611204565b6004600083815260200190815260200160002060009054906101000a900473ffffffffffffffffffffffffffffffffffffffff169050919050565b600061058c826108ad565b90508073ffffffffffffffffffffffffffffffffffffffff168373ffffffffffffffffffffffffffffffffffffffff16036105fc576040517f08c379a00000000000000000000000000000000000000000000000000000000081526004016105f390613031565b60405180910390fd5b8073ffffffffffffffffffffffffffffffffffffffff1661061b61124f565b73ffffffffffffffffffffffffffffffffffffffff16148061064a57506106498161064461124f565b611021565b5b610689576040517f08c379a0000000000000000000000000000000000000000000000000000000008152600401610680906130c3565b60405180910390fd5b6106938383611257565b505050565b6106a96106a361124f565b82611310565b6106e8576040517f08c379a00000000000000000000000000000000000000000000000000000000081526004016106df90613155565b60405180910390fd5b6106f38383836113a5565b505050565b61071383838360405180602001604052806000815250610e45565b505050565b600061072261169e565b600060086000815480929190610737906131a4565b919050559050610747878261171c565b610751818461173a565b6040518060800160405280878152602001868152602001428152602001620151808661077d91906131ec565b42610788919061322e565b8152506009600083815260200190815260200160002060008201518160000190816107b3919061340e565b5060208201518160010190816107c9919061340e565b506040820151816002015560608201518160030155905050600a60008873ffffffffffffffffffffffffffffffffffffffff1673ffffffffffffffffffffffffffffffffffffffff1681526020019081526020016000208190806001815401808255809150506001900390600052602060002001600090919091909150558673ffffffffffffffffffffffffffffffffffffffff16817fb7ff6cbe8f0282bf405f9ce3210be62c5620d39139a49186436e3f0fcc6a315a8860405161088e91906127c5565b60405180910390a38091505095945050505050565b6000600854905090565b6000806108b9836117de565b9050600073ffffffffffffffffffffffffffffffffffffffff168173ffffffffffffffffffffffffffffffffffffffff160361092a576040517f08c379a00000000000000000000000000000000000000000000000000000000081526004016109219061352c565b60405180910390fd5b80915050919050565b60008073ffffffffffffffffffffffffffffffffffffffff168273ffffffffffffffffffffffffffffffffffffffff16036109a3576040517f08c379a000000000000000000000000000000000000000000000000000000000815260040161099a906135be565b60405180910390fd5b600360008373ffffffffffffffffffffffffffffffffffffffff1673ffffffffffffffffffffffffffffffffffffffff168152602001908152602001600020549050919050565b6109f261169e565b6109fc600061181b565b565b606080600080610a0d856118e1565b610a4c576040517f08c379a0000000000000000000000000000000000000000000000000000000008152600401610a439061362a565b60405180910390fd5b600060096000878152602001908152602001600020604051806080016040529081600082018054610a7c90612f8e565b80601f0160208091040260200160405190810160405280929190818152602001828054610aa890612f8e565b8015610af55780601f10610aca57610100808354040283529160200191610af5565b820191906000526020600020905b815481529060010190602001808311610ad857829003601f168201915b50505050508152602001600182018054610b0e90612f8e565b80601f0160208091040260200160405190810160405280929190818152602001828054610b3a90612f8e565b8015610b875780601f10610b5c57610100808354040283529160200191610b87565b820191906000526020600020905b815481529060010190602001808311610b6a57829003601f168201915b5050505050815260200160028201548152602001600382015481525050905080600001518160200151826040015183606001519450945094509450509193509193565b6000600760009054906101000a900473ffffffffffffffffffffffffffffffffffffffff16905090565b606060018054610c0390612f8e565b80601f0160208091040260200160405190810160405280929190818152602001828054610c2f90612f8e565b8015610c7c5780601f10610c5157610100808354040283529160200191610c7c565b820191906000526020600020905b815481529060010190602001808311610c5f57829003601f168201915b5050505050905090565b610c98610c9161124f565b8383611922565b5050565b610ca461169e565b610cad826118e1565b610cec576040517f08c379a0000000000000000000000000000000000000000000000000000000008152600401610ce39061362a565b60405180910390fd5b6000610cf7836108ad565b90506000600a60008373ffffffffffffffffffffffffffffffffffffffff1673ffffffffffffffffffffffffffffffffffffffff168152602001908152602001600020905060005b8180549050811015610dfd5784828281548110610d5f57610d5e61364a565b5b906000526020600020015403610dea578160018380549050610d819190613679565b81548110610d9257610d9161364a565b5b9060005260206000200154828281548110610db057610daf61364a565b5b906000526020600020018190555081805480610dcf57610dce6136ad565b5b60019003818190600052602060002001600090559055610dfd565b8080610df5906131a4565b915050610d3f565b50610e0784611a8e565b837f65032d3cc955c731f4c2a4178f663dbcc6c08e5163bad5a3149773f3894548d384604051610e3791906127c5565b60405180910390a250505050565b610e56610e5061124f565b83611310565b610e95576040517f08c379a0000000000000000000000000000000000000000000000000000000008152600401610e8c90613155565b60405180910390fd5b610ea184848484611ae0565b50505050565b610eaf61169e565b610eb8826118e1565b610ef7576040517f08c379a0000000000000000000000000000000000000000000000000000000008152600401610eee9061362a565b60405180910390fd5b60006009600084815260200190815260200160002090506201518082610f1d91906131ec565b816003016000828254610f30919061322e565b92505081905550827fcfd9c75cefa17b4e85a91ed9d05ecab5bfe15fde464b2d442f39143895ff88978260030154604051610f6b9190612b78565b60405180910390a2505050565b6060600a60008373ffffffffffffffffffffffffffffffffffffffff1673ffffffffffffffffffffffffffffffffffffffff16815260200190815260200160002080548060200260200160405190810160405280929190818152602001828054801561100357602002820191906000526020600020905b815481526020019060010190808311610fef575b50505050509050919050565b606061101a82611b3c565b9050919050565b6000600560008473ffffffffffffffffffffffffffffffffffffffff1673ffffffffffffffffffffffffffffffffffffffff16815260200190815260200160002060008373ffffffffffffffffffffffffffffffffffffffff1673ffffffffffffffffffffffffffffffffffffffff16815260200190815260200160002060009054906101000a900460ff16905092915050565b6110bd61169e565b600073ffffffffffffffffffffffffffffffffffffffff168173ffffffffffffffffffffffffffffffffffffffff160361112c576040517f08c379a00000000000000000000000000000000000000000000000000000000081526004016111239061374e565b60405180910390fd5b6111358161181b565b50565b6000611143826118e1565b611182576040517f08c379a00000000000000000000000000000000000000000000000000000000081526004016111799061362a565b60405180910390fd5b60096000838152602001908152602001600020600301544211159050919050565b6000634906490660e01b7bffffffffffffffffffffffffffffffffffffffffffffffffffffffff1916827bffffffffffffffffffffffffffffffffffffffffffffffffffffffff191614806111fd57506111fc82611c4e565b5b9050919050565b61120d816118e1565b61124c576040517f08c379a00000000000000000000000000000000000000000000000000000000081526004016112439061352c565b60405180910390fd5b50565b600033905090565b816004600083815260200190815260200160002060006101000a81548173ffffffffffffffffffffffffffffffffffffffff021916908373ffffffffffffffffffffffffffffffffffffffff160217905550808273ffffffffffffffffffffffffffffffffffffffff166112ca836108ad565b73ffffffffffffffffffffffffffffffffffffffff167f8c5be1e5ebec7d5bd14f71427d1e84f3dd0314c0f7b2291e5b200ac8c7c3b92560405160405180910390a45050565b60008061131c836108ad565b90508073ffffffffffffffffffffffffffffffffffffffff168473ffffffffffffffffffffffffffffffffffffffff16148061135e575061135d8185611021565b5b8061139c57508373ffffffffffffffffffffffffffffffffffffffff166113848461053b565b73ffffffffffffffffffffffffffffffffffffffff16145b91505092915050565b8273ffffffffffffffffffffffffffffffffffffffff166113c5826108ad565b73ffffffffffffffffffffffffffffffffffffffff161461141b576040517f08c379a0000000000000000000000000000000000000000000000000000000008152600401611412906137e0565b60405180910390fd5b600073ffffffffffffffffffffffffffffffffffffffff168273ffffffffffffffffffffffffffffffffffffffff160361148a576040517f08c379a000000000000000000000000000000000000000000000000000000000815260040161148190613872565b60405180910390fd5b6114978383836001611d30565b8273ffffffffffffffffffffffffffffffffffffffff166114b7826108ad565b73ffffffffffffffffffffffffffffffffffffffff161461150d576040517f08c379a0000000000000000000000000000000000000000000000000000000008152600401611504906137e0565b60405180910390fd5b6004600082815260200190815260200160002060006101000a81549073ffffffffffffffffffffffffffffffffffffffff02191690556001600360008573ffffffffffffffffffffffffffffffffffffffff1673ffffffffffffffffffffffffffffffffffffffff168152602001908152602001600020600082825403925050819055506001600360008473ffffffffffffffffffffffffffffffffffffffff1673ffffffffffffffffffffffffffffffffffffffff16815260200190815260200160002060008282540192505081905550816002600083815260200190815260200160002060006101000a81548173ffffffffffffffffffffffffffffffffffffffff021916908373ffffffffffffffffffffffffffffffffffffffff160217905550808273ffffffffffffffffffffffffffffffffffffffff168473ffffffffffffffffffffffffffffffffffffffff167fddf252ad1be2c89b69c2b068fc378daa952ba7f163c4a11628f55a4df523b3ef60405160405180910390a46116998383836001611d36565b505050565b6116a661124f565b73ffffffffffffffffffffffffffffffffffffffff166116c4610bca565b73ffffffffffffffffffffffffffffffffffffffff161461171a576040517f08c379a0000000000000000000000000000000000000000000000000000000008152600401611711906138de565b60405180910390fd5b565b611736828260405180602001604052806000815250611d3c565b5050565b611743826118e1565b611782576040517f08c379a000000000000000000000000000000000000000000000000000000000815260040161177990613970565b60405180910390fd5b806006600084815260200190815260200160002090816117a2919061340e565b507ff8e1a15aba9398e019f0b49df1a4fde98ee17ae345cb5f6b5e2c27f5033e8ce7826040516117d29190612b78565b60405180910390a15050565b60006002600083815260200190815260200160002060009054906101000a900473ffffffffffffffffffffffffffffffffffffffff169050919050565b6000600760009054906101000a900473ffffffffffffffffffffffffffffffffffffffff16905081600760006101000a81548173ffffffffffffffffffffffffffffffffffffffff021916908373ffffffffffffffffffffffffffffffffffffffff1602179055508173ffffffffffffffffffffffffffffffffffffffff168173ffffffffffffffffffffffffffffffffffffffff167f8be0079c531659141344cd1fd0a4f28419497f9722a3daafe3b4186f6b6457e060405160405180910390a35050565b60008073ffffffffffffffffffffffffffffffffffffffff16611903836117de565b73ffffffffffffffffffffffffffffffffffffffff1614159050919050565b8173ffffffffffffffffffffffffffffffffffffffff168373ffffffffffffffffffffffffffffffffffffffff1603611990576040517f08c379a0000000000000000000000000000000000000000000000000000000008152600401611987906139dc565b60405180910390fd5b80600560008573ffffffffffffffffffffffffffffffffffffffff1673ffffffffffffffffffffffffffffffffffffffff16815260200190815260200160002060008473ffffffffffffffffffffffffffffffffffffffff1673ffffffffffffffffffffffffffffffffffffffff16815260200190815260200160002060006101000a81548160ff0219169083151502179055508173ffffffffffffffffffffffffffffffffffffffff168373ffffffffffffffffffffffffffffffffffffffff167f17307eab39ab6107e8899845ad3d59bd9653f200f220920489ca2b5937696c3183604051611a81919061271a565b60405180910390a3505050565b611a9781611d97565b6009600082815260200190815260200160002060008082016000611abb9190612609565b600182016000611acb9190612609565b60028201600090556003820160009055505050565b611aeb8484846113a5565b611af784848484611dea565b611b36576040517f08c379a0000000000000000000000000000000000000000000000000000000008152600401611b2d90613a6e565b60405180910390fd5b50505050565b6060611b4782611204565b6000600660008481526020019081526020016000208054611b6790612f8e565b80601f0160208091040260200160405190810160405280929190818152602001828054611b9390612f8e565b8015611be05780601f10611bb557610100808354040283529160200191611be0565b820191906000526020600020905b815481529060010190602001808311611bc357829003601f168201915b505050505090506000611bf1611f71565b90506000815103611c06578192505050611c49565b600082511115611c3b578082604051602001611c23929190613aca565b60405160208183030381529060405292505050611c49565b611c4484611f88565b925050505b919050565b60007f80ac58cd000000000000000000000000000000000000000000000000000000007bffffffffffffffffffffffffffffffffffffffffffffffffffffffff1916827bffffffffffffffffffffffffffffffffffffffffffffffffffffffff19161480611d1957507f5b5e139f000000000000000000000000000000000000000000000000000000007bffffffffffffffffffffffffffffffffffffffffffffffffffffffff1916827bffffffffffffffffffffffffffffffffffffffffffffffffffffffff1916145b80611d295750611d2882611ff0565b5b9050919050565b50505050565b50505050565b611d46838361205a565b611d536000848484611dea565b611d92576040517f08c379a0000000000000000000000000000000000000000000000000000000008152600401611d8990613a6e565b60405180910390fd5b505050565b611da081612277565b6000600660008381526020019081526020016000208054611dc090612f8e565b905014611de757600660008281526020019081526020016000206000611de69190612609565b5b50565b6000611e0b8473ffffffffffffffffffffffffffffffffffffffff166123c5565b15611f64578373ffffffffffffffffffffffffffffffffffffffff1663150b7a02611e3461124f565b8786866040518563ffffffff1660e01b8152600401611e569493929190613b43565b6020604051808303816000875af1925050508015611e9257506040513d601f19601f82011682018060405250810190611e8f9190613ba4565b60015b611f14573d8060008114611ec2576040519150601f19603f3d011682016040523d82523d6000602084013e611ec7565b606091505b506000815103611f0c576040517f08c379a0000000000000000000000000000000000000000000000000000000008152600401611f0390613a6e565b60405180910390fd5b805181602001fd5b63150b7a0260e01b7bffffffffffffffffffffffffffffffffffffffffffffffffffffffff1916817bffffffffffffffffffffffffffffffffffffffffffffffffffffffff191614915050611f69565b600190505b949350505050565b606060405180602001604052806000815250905090565b6060611f9382611204565b6000611f9d611f71565b90506000815111611fbd5760405180602001604052806000815250611fe8565b80611fc7846123e8565b604051602001611fd8929190613aca565b6040516020818303038152906040525b915050919050565b60007f01ffc9a7000000000000000000000000000000000000000000000000000000007bffffffffffffffffffffffffffffffffffffffffffffffffffffffff1916827bffffffffffffffffffffffffffffffffffffffffffffffffffffffff1916149050919050565b600073ffffffffffffffffffffffffffffffffffffffff168273ffffffffffffffffffffffffffffffffffffffff16036120c9576040517f08c379a00000000000000000000000000000000000000000000000000000000081526004016120c090613c1d565b60405180910390fd5b6120d2816118e1565b15612112576040517f08c379a000000000000000000000000000000000000000000000000000000000815260040161210990613c89565b60405180910390fd5b612120600083836001611d30565b612129816118e1565b15612169576040517f08c379a000000000000000000000000000000000000000000000000000000000815260040161216090613c89565b60405180910390fd5b6001600360008473ffffffffffffffffffffffffffffffffffffffff1673ffffffffffffffffffffffffffffffffffffffff16815260200190815260200160002060008282540192505081905550816002600083815260200190815260200160002060006101000a81548173ffffffffffffffffffffffffffffffffffffffff021916908373ffffffffffffffffffffffffffffffffffffffff160217905550808273ffffffffffffffffffffffffffffffffffffffff16600073ffffffffffffffffffffffffffffffffffffffff167fddf252ad1be2c89b69c2b068fc378daa952ba7f163c4a11628f55a4df523b3ef60405160405180910390a4612273600083836001611d36565b5050565b6000612282826108ad565b9050612292816000846001611d30565b61229b826108ad565b90506004600083815260200190815260200160002060006101000a81549073ffffffffffffffffffffffffffffffffffffffff02191690556001600360008373ffffffffffffffffffffffffffffffffffffffff1673ffffffffffffffffffffffffffffffffffffffff168152602001908152602001600020600082825403925050819055506002600083815260200190815260200160002060006101000a81549073ffffffffffffffffffffffffffffffffffffffff021916905581600073ffffffffffffffffffffffffffffffffffffffff168273ffffffffffffffffffffffffffffffffffffffff167fddf252ad1be2c89b69c2b068fc378daa952ba7f163c4a11628f55a4df523b3ef60405160405180910390a46123c1816000846001611d36565b5050565b6000808273ffffffffffffffffffffffffffffffffffffffff163b119050919050565b6060600060016123f7846124b6565b01905060008167ffffffffffffffff8111156124165761241561296f565b5b6040519080825280601f01601f1916602001820160405280156124485781602001600182028036833780820191505090505b509050600082602001820190505b6001156124ab578080600190039150507f3031323334353637383961626364656600000000000000000000000000000000600a86061a8153600a858161249f5761249e613ca9565b5b04945060008503612456575b819350505050919050565b600080600090507a184f03e93ff9f4daa797ed6e38ed64bf6a1f0100000000000000008310612514577a184f03e93ff9f4daa797ed6e38ed64bf6a1f010000000000000000838161250a57612509613ca9565b5b0492506040810190505b6d04ee2d6d415b85acef81000000008310612551576d04ee2d6d415b85acef8100000000838161254757612546613ca9565b5b0492506020810190505b662386f26fc10000831061258057662386f26fc10000838161257657612575613ca9565b5b0492506010810190505b6305f5e10083106125a9576305f5e100838161259f5761259e613ca9565b5b0492506008810190505b61271083106125ce5761271083816125c4576125c3613ca9565b5b0492506004810190505b606483106125f157606483816125e7576125e6613ca9565b5b0492506002810190505b600a8310612600576001810190505b80915050919050565b50805461261590612f8e565b6000825580601f106126275750612646565b601f0160209004906000526020600020908101906126459190612649565b5b50565b5b8082111561266257600081600090555060010161264a565b5090565b6000604051905090565b600080fd5b600080fd5b60007fffffffff0000000000000000000000000000000000000000000000000000000082169050919050565b6126af8161267a565b81146126ba57600080fd5b50565b6000813590506126cc816126a6565b92915050565b6000602082840312156126e8576126e7612670565b5b60006126f6848285016126bd565b91505092915050565b60008115159050919050565b612714816126ff565b82525050565b600060208201905061272f600083018461270b565b92915050565b600081519050919050565b600082825260208201905092915050565b60005b8381101561276f578082015181840152602081019050612754565b60008484015250505050565b6000601f19601f8301169050919050565b600061279782612735565b6127a18185612740565b93506127b1818560208601612751565b6127ba8161277b565b840191505092915050565b600060208201905081810360008301526127df818461278c565b905092915050565b6000819050919050565b6127fa816127e7565b811461280557600080fd5b50565b600081359050612817816127f1565b92915050565b60006020828403121561283357612832612670565b5b600061284184828501612808565b91505092915050565b600073ffffffffffffffffffffffffffffffffffffffff82169050919050565b60006128758261284a565b9050919050565b6128858161286a565b82525050565b60006020820190506128a0600083018461287c565b92915050565b6128af8161286a565b81146128ba57600080fd5b50565b6000813590506128cc816128a6565b92915050565b600080604083850312156128e9576128e8612670565b5b60006128f7858286016128bd565b925050602061290885828601612808565b9150509250929050565b60008060006060848603121561292b5761292a612670565b5b6000612939868287016128bd565b935050602061294a868287016128bd565b925050604061295b86828701612808565b9150509250925092565b600080fd5b600080fd5b7f4e487b7100000000000000000000000000000000000000000000000000000000600052604160045260246000fd5b6129a78261277b565b810181811067ffffffffffffffff821117156129c6576129c561296f565b5b80604052505050565b60006129d9612666565b90506129e5828261299e565b919050565b600067ffffffffffffffff821115612a0557612a0461296f565b5b612a0e8261277b565b9050602081019050919050565b82818337600083830152505050565b6000612a3d612a38846129ea565b6129cf565b905082815260208101848484011115612a5957612a5861296a565b5b612a64848285612a1b565b509392505050565b600082601f830112612a8157612a80612965565b5b8135612a91848260208601612a2a565b91505092915050565b600080600080600060a08688031215612ab657612ab5612670565b5b6000612ac4888289016128bd565b955050602086013567ffffffffffffffff811115612ae557612ae4612675565b5b612af188828901612a6c565b945050604086013567ffffffffffffffff811115612b1257612b11612675565b5b612b1e88828901612a6c565b9350506060612b2f88828901612808565b925050608086013567ffffffffffffffff811115612b5057612b4f612675565b5b612b5c88828901612a6c565b9150509295509295909350565b612b72816127e7565b82525050565b6000602082019050612b8d6000830184612b69565b92915050565b600060208284031215612ba957612ba8612670565b5b6000612bb7848285016128bd565b91505092915050565b60006080820190508181036000830152612bda818761278c565b90508181036020830152612bee818661278c565b9050612bfd6040830185612b69565b612c0a6060830184612b69565b95945050505050565b612c1c816126ff565b8114612c2757600080fd5b50565b600081359050612c3981612c13565b92915050565b60008060408385031215612c5657612c55612670565b5b6000612c64858286016128bd565b9250506020612c7585828601612c2a565b9150509250929050565b60008060408385031215612c9657612c95612670565b5b6000612ca485828601612808565b925050602083013567ffffffffffffffff811115612cc557612cc4612675565b5b612cd185828601612a6c565b9150509250929050565b600067ffffffffffffffff821115612cf657612cf561296f565b5b612cff8261277b565b9050602081019050919050565b6000612d1f612d1a84612cdb565b6129cf565b905082815260208101848484011115612d3b57612d3a61296a565b5b612d46848285612a1b565b509392505050565b600082601f830112612d6357612d62612965565b5b8135612d73848260208601612d0c565b91505092915050565b60008060008060808587031215612d9657612d95612670565b5b6000612da4878288016128bd565b9450506020612db5878288016128bd565b9350506040612dc687828801612808565b925050606085013567ffffffffffffffff811115612de757612de6612675565b5b612df387828801612d4e565b91505092959194509250565b60008060408385031215612e1657612e15612670565b5b6000612e2485828601612808565b9250506020612e3585828601612808565b9150509250929050565b600081519050919050565b600082825260208201905092915050565b6000819050602082019050919050565b612e74816127e7565b82525050565b6000612e868383612e6b565b60208301905092915050565b6000602082019050919050565b6000612eaa82612e3f565b612eb48185612e4a565b9350612ebf83612e5b565b8060005b83811015612ef0578151612ed78882612e7a565b9750612ee283612e92565b925050600181019050612ec3565b5085935050505092915050565b60006020820190508181036000830152612f178184612e9f565b905092915050565b60008060408385031215612f3657612f35612670565b5b6000612f44858286016128bd565b9250506020612f55858286016128bd565b9150509250929050565b7f4e487b7100000000000000000000000000000000000000000000000000000000600052602260045260246000fd5b60006002820490506001821680612fa657607f821691505b602082108103612fb957612fb8612f5f565b5b50919050565b7f4552433732313a20617070726f76616c20746f2063757272656e74206f776e6560008201527f7200000000000000000000000000000000000000000000000000000000000000602082015250565b600061301b602183612740565b915061302682612fbf565b604082019050919050565b6000602082019050818103600083015261304a8161300e565b9050919050565b7f4552433732313a20617070726f76652063616c6c6572206973206e6f7420746f60008201527f6b656e206f776e6572206f7220617070726f76656420666f7220616c6c000000602082015250565b60006130ad603d83612740565b91506130b882613051565b604082019050919050565b600060208201905081810360008301526130dc816130a0565b9050919050565b7f4552433732313a2063616c6c6572206973206e6f7420746f6b656e206f776e6560008201527f72206f7220617070726f76656400000000000000000000000000000000000000602082015250565b600061313f602d83612740565b915061314a826130e3565b604082019050919050565b6000602082019050818103600083015261316e81613132565b9050919050565b7f4e487b7100000000000000000000000000000000000000000000000000000000600052601160045260246000fd5b60006131af826127e7565b91507fffffffffffffffffffffffffffffffffffffffffffffffffffffffffffffffff82036131e1576131e0613175565b5b600182019050919050565b60006131f7826127e7565b9150613202836127e7565b9250828202613210816127e7565b9150828204841483151761322757613226613175565b5b5092915050565b6000613239826127e7565b9150613244836127e7565b925082820190508082111561325c5761325b613175565b5b92915050565b60008190508160005260206000209050919050565b60006020601f8301049050919050565b600082821b905092915050565b6000600883026132c47fffffffffffffffffffffffffffffffffffffffffffffffffffffffffffffffff82613287565b6132ce8683613287565b95508019841693508086168417925050509392505050565b6000819050919050565b600061330b613306613301846127e7565b6132e6565b6127e7565b9050919050565b6000819050919050565b613325836132f0565b61333961333182613312565b848454613294565b825550505050565b600090565b61334e613341565b61335981848461331c565b505050565b5b8181101561337d57613372600082613346565b60018101905061335f565b5050565b601f8211156133c25761339381613262565b61339c84613277565b810160208510156133ab578190505b6133bf6133b785613277565b83018261335e565b50505b505050565b600082821c905092915050565b60006133e5600019846008026133c7565b1980831691505092915050565b60006133fe83836133d4565b9150826002028217905092915050565b61341782612735565b67ffffffffffffffff8111156134305761342f61296f565b5b61343a8254612f8e565b613445828285613381565b600060209050601f8311600181146134785760008415613466578287015190505b61347085826133f2565b8655506134d8565b601f19841661348686613262565b60005b828110156134ae57848901518255600182019150602085019450602081019050613489565b868310156134cb57848901516134c7601f8916826133d4565b8355505b6001600288020188555050505b505050505050565b7f4552433732313a20696e76616c696420746f6b656e2049440000000000000000600082015250565b6000613516601883612740565b9150613521826134e0565b602082019050919050565b6000602082019050818103600083015261354581613509565b9050919050565b7f4552433732313a2061646472657373207a65726f206973206e6f74206120766160008201527f6c6964206f776e65720000000000000000000000000000000000000000000000602082015250565b60006135a8602983612740565b91506135b38261354c565b604082019050919050565b600060208201905081810360008301526135d78161359b565b9050919050565b7f436572746966696361746520646f6573206e6f74206578697374000000000000600082015250565b6000613614601a83612740565b915061361f826135de565b602082019050919050565b6000602082019050818103600083015261364381613607565b9050919050565b7f4e487b7100000000000000000000000000000000000000000000000000000000600052603260045260246000fd5b6000613684826127e7565b915061368f836127e7565b92508282039050818111156136a7576136a6613175565b5b92915050565b7f4e487b7100000000000000000000000000000000000000000000000000000000600052603160045260246000fd5b7f4f776e61626c653a206e6577206f776e657220697320746865207a65726f206160008201527f6464726573730000000000000000000000000000000000000000000000000000602082015250565b6000613738602683612740565b9150613743826136dc565b604082019050919050565b600060208201905081810360008301526137678161372b565b9050919050565b7f4552433732313a207472616e736665722066726f6d20696e636f72726563742060008201527f6f776e6572000000000000000000000000000000000000000000000000000000602082015250565b60006137ca602583612740565b91506137d58261376e565b604082019050919050565b600060208201905081810360008301526137f9816137bd565b9050919050565b7f4552433732313a207472616e7366657220746f20746865207a65726f2061646460008201527f7265737300000000000000000000000000000000000000000000000000000000602082015250565b600061385c602483612740565b915061386782613800565b604082019050919050565b6000602082019050818103600083015261388b8161384f565b9050919050565b7f4f776e61626c653a2063616c6c6572206973206e6f7420746865206f776e6572600082015250565b60006138c8602083612740565b91506138d382613892565b602082019050919050565b600060208201905081810360008301526138f7816138bb565b9050919050565b7f45524337323155524953746f726167653a2055524920736574206f66206e6f6e60008201527f6578697374656e7420746f6b656e000000000000000000000000000000000000602082015250565b600061395a602e83612740565b9150613965826138fe565b604082019050919050565b600060208201905081810360008301526139898161394d565b9050919050565b7f4552433732313a20617070726f766520746f2063616c6c657200000000000000600082015250565b60006139c6601983612740565b91506139d182613990565b602082019050919050565b600060208201905081810360008301526139f5816139b9565b9050919050565b7f4552433732313a207472616e7366657220746f206e6f6e20455243373231526560008201527f63656976657220696d706c656d656e7465720000000000000000000000000000602082015250565b6000613a58603283612740565b9150613a63826139fc565b604082019050919050565b60006020820190508181036000830152613a8781613a4b565b9050919050565b600081905092915050565b6000613aa482612735565b613aae8185613a8e565b9350613abe818560208601612751565b80840191505092915050565b6000613ad68285613a99565b9150613ae28284613a99565b91508190509392505050565b600081519050919050565b600082825260208201905092915050565b6000613b1582613aee565b613b1f8185613af9565b9350613b2f818560208601612751565b613b388161277b565b840191505092915050565b6000608082019050613b58600083018761287c565b613b65602083018661287c565b613b726040830185612b69565b8181036060830152613b848184613b0a565b905095945050505050565b600081519050613b9e816126a6565b92915050565b600060208284031215613bba57613bb9612670565b5b6000613bc884828501613b8f565b91505092915050565b7f4552433732313a206d696e7420746f20746865207a65726f2061646472657373600082015250565b6000613c07602083612740565b9150613c1282613bd1565b602082019050919050565b60006020820190508181036000830152613c3681613bfa565b9050919050565b7f4552433732313a20746f6b656e20616c7265616479206d696e74656400000000600082015250565b6000613c73601c83612740565b9150613c7e82613c3d565b602082019050919050565b60006020820190508181036000830152613ca281613c66565b9050919050565b7f4e487b7100000000000000000000000000000000000000000000000000000000600052601260045260246000fdfea264697066735822122095efe925a86d4c096ef91c91f4c3b8f106a3c53461f3bcf3b03e6c9102767ea664736f6c63430008130033",
  "linkReferences": {},
  "deployedLinkReferences": {}
}