{
  "_format": "hh-sol-artifact-1",
  "contractName": "FairTradeCertificate",
  "sourceName": "contracts/fair-trade-certificate.sol",
  "abi": [
    {
      "inputs": [],
      "stateMutability": "nonpayable",
      "type": "constructor"
    },
    {
      "anonymous": false,
      "inputs": [
        {
          "indexed": true,
          "internalType": "address",
          "name": "owner",
          "type": "address"
        },
        {
          "indexed": true,
          "internalType": "address",
          "name": "approved",
          "type": "address"
        },
        {
          "indexed": true,
          "internalType": "uint256",
          "name": "tokenId",
          "type": "uint256"
        }
      ],
      "name": "Approval",
      "type": "event"
    },
    {
      "anonymous": false,
      "inputs": [
        {
          "indexed": true,
          "internalType": "address",
          "name": "owner",
          "type": "address"
        },
        {
          "indexed": true,
          "internalType": "address",
          "name": "operator",
          "type": "address"
        },
        {
          "indexed": false,
          "internalType": "bool",
          "name": "approved",
          "type": "bool"
        }
      ],
      "name": "ApprovalForAll",
      "type": "event"
    },
    {
      "anonymous": false,
      "inputs": [
        {
          "indexed": false,
          "internalType": "uint256",
          "name": "_fromTokenId",
          "type": "uint256"
        },
        {
          "indexed": false,
          "internalType": "uint256",
          "name": "_toTokenId",
          "type": "uint256"
        }
      ],
      "name": "BatchMetadataUpdate",
      "type": "event"
    },
    {
      "anonymous": false,
      "inputs": [
        {
          "indexed": true,
          "internalType": "uint256",
          "name": "tokenId",
          "type": "uint256"
        },
        {
          "indexed": true,
          "internalType": "address",
          "name": "recipient",
          "type": "address"
        },
        {
          "indexed": false,
          "internalType": "string",
          "name": "companyName",
          "type": "string"
        }
      ],
      "name": "CertificateIssued",
      "type": "event"
    },
    {
      "anonymous": false,
      "inputs": [
        {
          "indexed": true,
          "internalType": "uint256",
          "name": "tokenId",
          "type": "uint256"
        },
        {
          "indexed": false,
          "internalType": "uint256",
          "name": "newExpirationDate",
          "type": "uint256"
        }
      ],
      "name": "CertificateRenewed",
      "type": "event"
    },
    {
      "anonymous": false,
      "inputs": [
        {
          "indexed": true,
          "internalType": "uint256",
          "name": "tokenId",
          "type": "uint256"
        },
        {
          "indexed": false,
          "internalType": "string",
          "name": "reason",
          "type": "string"
        }
      ],
      "name": "CertificateRevoked",
      "type": "event"
    },
    {
      "anonymous": false,
      "inputs": [
        {
          "indexed": false,
          "internalType": "uint256",
          "name": "_tokenId",
          "type": "uint256"
        }
      ],
      "name": "MetadataUpdate",
      "type": "event"
    },
    {
      "anonymous": false,
      "inputs": [
        {
          "indexed": true,
          "internalType": "address",
          "name": "previousOwner",
          "type": "address"
        },
        {
          "indexed": true,
          "internalType": "address",
          "name": "newOwner",
          "type": "address"
        }
      ],
      "name": "OwnershipTransferred",
      "type": "event"
    },
    {
      "anonymous": false,
      "inputs": [
        {
          "indexed": true,
          "internalType": "address",
          "name": "from",
          "type": "address"
        },
        {
          "indexed": true,
          "internalType": "address",
          "name": "to",
          "type": "address"
        },
        {
          "indexed": true,
          "internalType": "uint256",
          "name": "tokenId",
          "type": "uint256"
        }
      ],
      "name": "Transfer",
      "type": "event"
    },
    {
      "inputs": [
        {
          "internalType": "address",
          "name": "to",
          "type": "address"
        },
        {
          "internalType": "uint256",
          "name": "tokenId",
          "type": "uint256"
        }
      ],
      "name": "approve",
      "outputs": [],
      "stateMutability": "nonpayable",
      "type": "function"
    },
    {
      "inputs": [
        {
          "internalType": "address",
          "name": "owner",
          "type": "address"
        }
      ],
      "name": "balanceOf",
      "outputs": [
        {
          "internalType": "uint256",
          "name": "",
          "type": "uint256"
        }
      ],
      "stateMutability": "view",
      "type": "function"
    },
    {
      "inputs": [
        {
          "internalType": "uint256",
          "name": "tokenId",
          "type": "uint256"
        }
      ],
      "name": "getApproved",
      "outputs": [
        {
          "internalType": "address",
          "name": "",
          "type": "address"
        }
      ],
      "stateMutability": "view",
      "type": "function"
    },
    {
      "inputs": [
        {
          "internalType": "address",
          "name": "company",
          "type": "address"
        }
      ],
      "name": "getCompanyCertificates",
      "outputs": [
        {
          "internalType": "uint256[]",
          "name": "",
          "type": "uint256[]"
        }
      ],
      "stateMutability": "view",
      "type": "function"
    },
    {
      "inputs": [
        {
          "internalType": "uint256",
          "name": "tokenId",
          "type": "uint256"
        }
      ],
      "name": "getCompanyInfo",
      "outputs": [
        {
          "internalType": "string",
          "name": "companyName",
          "type": "string"
        },
        {
          "internalType": "string",
          "name": "registrationNumber",
          "type": "string"
        },
        {
          "internalType": "uint256",
          "name": "certificationDate",
          "type": "uint256"
        },
        {
          "internalType": "uint256",
          "name": "expirationDate",
          "type": "uint256"
        }
      ],
      "stateMutability": "view",
      "type": "function"
    },
    {
      "inputs": [
        {
          "internalType": "address",
          "name": "owner",
          "type": "address"
        },
        {
          "internalType": "address",
          "name": "operator",
          "type": "address"
        }
      ],
      "name": "isApprovedForAll",
      "outputs": [
        {
          "internalType": "bool",
          "name": "",
          "type": "bool"
        }
      ],
      "stateMutability": "view",
      "type": "function"
    },
    {
      "inputs": [
        {
          "internalType": "uint256",
          "name": "tokenId",
          "type": "uint256"
        }
      ],
      "name": "isValid",
      "outputs": [
        {
          "internalType": "bool",
          "name": "",
          "type": "bool"
        }
      ],
      "stateMutability": "view",
      "type": "function"
    },
    {
      "inputs": [
        {
          "internalType": "address",
          "name": "to",
          "type": "address"
        },
        {
          "internalType": "string",
          "name": "companyName",
          "type": "string"
        },
        {
          "internalType": "string",
          "name": "registrationNumber",
          "type": "string"
        },
        {
          "internalType": "uint256",
          "name": "validityPeriod",
          "type": "uint256"
        },
        {
          "internalType": "string",
          "name": "uri",
          "type": "string"
        }
      ],
      "name": "issueCertificate",
      "outputs": [
        {
          "internalType": "uint256",
          "name": "",
          "type": "uint256"
        }
      ],
      "stateMutability": "nonpayable",
      "type": "function"
    },
    {
      "inputs": [],
      "name": "name",
      "outputs": [
        {
          "internalType": "string",
          "name": "",
          "type": "string"
        }
      ],
      "stateMutability": "view",
      "type": "function"
    },
    {
      "inputs": [],
      "name": "owner",
      "outputs": [
        {
          "internalType": "address",
          "name": "",
          "type": "address"
        }
      ],
      "stateMutability": "view",
      "type": "function"
    },
    {
      "inputs": [
        {
          "internalType": "uint256",
          "name": "tokenId",
          "type": "uint256"
        }
      ],
      "name": "ownerOf",
      "outputs": [
        {
          "internalType": "address",
          "name": "",
          "type": "address"
        }
      ],
      "stateMutability": "view",
      "type": "function"
    },
    {
      "inputs": [
        {
          "internalType": "uint256",
          "name": "tokenId",
          "type": "uint256"
        },
        {
          "internalType": "uint256",
          "name": "additionalPeriod",
          "type": "uint256"
        }
      ],
      "name": "renewCertificate",
      "outputs": [],
      "stateMutability": "nonpayable",
      "type": "function"
    },
    {
      "inputs": [],
      "name": "renounceOwnership",
      "outputs": [],
      "stateMutability": "nonpayable",
      "type": "function"
    },
    {
      "inputs": [
        {
          "internalType": "uint256",
          "name": "tokenId",
          "type": "uint256"
        },
        {
          "internalType": "string",
          "name": "reason",
          "type": "string"
        }
      ],
      "name": "revokeCertificate",
      "outputs": [],
      "stateMutability": "nonpayable",
      "type": "function"
    },
    {
      "inputs": [
        {
          "internalType": "address",
          "name": "from",
          "type": "address"
        },
        {
          "internalType": "address",
          "name": "to",
          "type": "address"
        },
        {
          "internalType": "uint256",
          "name": "tokenId",
          "type": "uint256"
        }
      ],
      "name": "safeTransferFrom",
      "outputs": [],
      "stateMutability": "nonpayable",
      "type": "function"
    },
    {
      "inputs": [
        {
          "internalType": "address",
          "name": "from",
          "type": "address"
        },
        {
          "internalType": "address",
          "name": "to",
          "type": "address"
        },
        {
          "internalType": "uint256",
          "name": "tokenId",
          "type": "uint256"
        },
        {
          "internalType": "bytes",
          "name": "data",
          "type": "bytes"
        }
      ],
      "name": "safeTransferFrom",
      "outputs": [],
      "stateMutability": "nonpayable",
      "type": "function"
    },
    {
      "inputs": [
        {
          "internalType": "address",
          "name": "operator",
          "type": "address"
        },
        {
          "internalType": "bool",
          "name": "approved",
          "type": "bool"
        }
      ],
      "name": "setApprovalForAll",
      "outputs": [],
      "stateMutability": "nonpayable",
      "type": "function"
    },
    {
      "inputs": [
        {
          "internalType": "bytes4",
          "name": "interfaceId",
          "type": "bytes4"
        }
      ],
      "name": "supportsInterface",
      "outputs": [
        {
          "internalType": "bool",
          "name": "",
          "type": "bool"
        }
      ],
      "stateMutability": "view",
      "type": "function"
    },
    {
      "inputs": [],
      "name": "symbol",
      "outputs": [
        {
          "internalType": "string",
          "name": "",
          "type": "string"
        }
      ],
      "stateMutability": "view",
      "type": "function"
    },
    {
      "inputs": [
        {
          "internalType": "uint256",
          "name": "tokenId",
          "type": "uint256"
        }
      ],
      "name": "tokenURI",
      "outputs": [
        {
          "internalType": "string",
          "name": "",
          "type": "string"
        }
      ],
      "stateMutability": "view",
      "type": "function"
    },
    {
      "inputs": [],
      "name": "totalCertificates",
      "outputs": [
        {
          "internalType": "uint256",
          "name": "",
          "type": "uint256"
        }
      ],
      "stateMutability": "view",
      "type": "function"
    },
    {
      "inputs": [
        {
          "internalType": "address",
          "name": "from",
          "type": "address"
        },
        {
          "internalType": "address",
          "name": "to",
          "type": "address"
        },
        {
          "internalType": "uint256",
          "name": "tokenId",
          "type": "uint256"
        }
      ],
      "name": "transferFrom",
      "outputs": [],
      "stateMutability": "nonpayable",
      "type": "function"
    },
    {
      "inputs": [
        {
          "internalType": "address",
          "name": "newOwner",
          "type": "address"
        }
      ],
      "name": "transferOwnership",
      "outputs": [],
      "stateMutability": "nonpayable",
      "type": "function"
    }
  ],
  "bytecode": "0x60806040523480156200001157600080fd5b506040518060400160405280601481526020017f46616972547261646543657274696669636174650000000000000000000000008152506040518060400160405280600381526020016246544360e81b8152508160009081620000759190620001a2565b506001620000848282620001a2565b505050620000a16200009b620000a760201b60201c565b620000ab565b6200026e565b3390565b600780546001600160a01b038381166001600160a01b0319831681179093556040519116919082907f8be0079c531659141344cd1fd0a4f28419497f9722a3daafe3b4186f6b6457e090600090a35050565b634e487b7160e01b600052604160045260246000fd5b600181811c908216806200012857607f821691505b6020821081036200014957634e487b7160e01b600052602260045260246000fd5b50919050565b601f8211156200019d57600081815260208120601f850160051c81016020861015620001785750805b601f850160051c820191505b81811015620001995782815560010162000184565b5050505b505050565b81516001600160401b03811115620001be57620001be620000fd565b620001d681620001cf845462000113565b846200014f565b602080601f8311600181146200020e5760008415620001f55750858301515b600019600386901b1c1916600185901b17855562000199565b600085815260208120601f198616915b828110156200023f578886015182559484019460019091019084016200021e565b50858210156200025e5787850151600019600388901b60f8161c191681555b5050505050600190811b01905550565b61217a806200027e6000396000f3fe608060405234801561001057600080fd5b506004361061014d5760003560e01c80637d5ed69d116100c3578063bbf3c8771161007c578063bbf3c877146102c1578063c0866e27146102d4578063c87b56dd146102f4578063e985e9c514610307578063f2fde38b1461031a578063f577a5001461032d57600080fd5b80637d5ed69d1461024c5780638da5cb5b1461026f57806395d89b4114610280578063a22cb46514610288578063b1466d1d1461029b578063b88d4fde146102ae57600080fd5b806342842e0e1161011557806342842e0e146101e25780634a321d2e146101f5578063596b772f146102165780636352211e1461021e57806370a0823114610231578063715018a61461024457600080fd5b806301ffc9a71461015257806306fdde031461017a578063081812fc1461018f578063095ea7b3146101ba57806323b872dd146101cf575b600080fd5b61016561016036600461196a565b610340565b60405190151581526020015b60405180910390f35b610182610351565b60405161017191906119d7565b6101a261019d3660046119ea565b6103e3565b6040516001600160a01b039091168152602001610171565b6101cd6101c8366004611a1f565b61040a565b005b6101cd6101dd366004611a49565b610524565b6101cd6101f0366004611a49565b610555565b610208610203366004611b31565b610570565b604051908152602001610171565b600854610208565b6101a261022c3660046119ea565b610693565b61020861023f366004611bd4565b6106f3565b6101cd610779565b61025f61025a3660046119ea565b61078d565b6040516101719493929190611bef565b6007546001600160a01b03166101a2565b61018261092d565b6101cd610296366004611c28565b61093c565b6101cd6102a9366004611c64565b61094b565b6101cd6102bc366004611cab565b610a9b565b6101cd6102cf366004611d27565b610ad3565b6102e76102e2366004611bd4565b610b72565b6040516101719190611d49565b6101826103023660046119ea565b610bde565b610165610315366004611d8d565b610be9565b6101cd610328366004611bd4565b610c17565b61016561033b3660046119ea565b610c90565b600061034b82610cd0565b92915050565b60606000805461036090611dc0565b80601f016020809104026020016040519081016040528092919081815260200182805461038c90611dc0565b80156103d95780601f106103ae576101008083540402835291602001916103d9565b820191906000526020600020905b8154815290600101906020018083116103bc57829003601f168201915b5050505050905090565b60006103ee82610cf5565b506000908152600460205260409020546001600160a01b031690565b600061041582610693565b9050806001600160a01b0316836001600160a01b0316036104875760405162461bcd60e51b815260206004820152602160248201527f4552433732313a20617070726f76616c20746f2063757272656e74206f776e656044820152603960f91b60648201526084015b60405180910390fd5b336001600160a01b03821614806104a357506104a38133610be9565b6105155760405162461bcd60e51b815260206004820152603d60248201527f4552433732313a20617070726f76652063616c6c6572206973206e6f7420746f60448201527f6b656e206f776e6572206f7220617070726f76656420666f7220616c6c000000606482015260840161047e565b61051f8383610d45565b505050565b61052e3382610db3565b61054a5760405162461bcd60e51b815260040161047e90611dfa565b61051f838383610e12565b61051f83838360405180602001604052806000815250610a9b565b600061057a610f76565b600880546000918261058b83611e5d565b91905055905061059b8782610fd0565b6105a58184610fea565b604051806080016040528087815260200186815260200142815260200185620151806105d19190611e76565b6105db9042611e8d565b90526000828152600960205260409020815181906105f99082611eee565b506020820151600182019061060e9082611eee565b5060408281015160028301556060909201516003909101556001600160a01b0388166000818152600a60209081528382208054600181018255908352912001839055905182907fb7ff6cbe8f0282bf405f9ce3210be62c5620d39139a49186436e3f0fcc6a315a90610681908a906119d7565b60405180910390a39695505050505050565b6000818152600260205260408120546001600160a01b03168061034b5760405162461bcd60e51b8152602060048201526018602482015277115490cdcc8c4e881a5b9d985b1a59081d1bdad95b88125160421b604482015260640161047e565b60006001600160a01b03821661075d5760405162461bcd60e51b815260206004820152602960248201527f4552433732313a2061646472657373207a65726f206973206e6f7420612076616044820152683634b21037bbb732b960b91b606482015260840161047e565b506001600160a01b031660009081526003602052604090205490565b610781610f76565b61078b60006110a6565b565b60608060008061079c856110f8565b6107b85760405162461bcd60e51b815260040161047e90611fae565b6000858152600960205260408082208151608081019092528054829082906107df90611dc0565b80601f016020809104026020016040519081016040528092919081815260200182805461080b90611dc0565b80156108585780601f1061082d57610100808354040283529160200191610858565b820191906000526020600020905b81548152906001019060200180831161083b57829003601f168201915b5050505050815260200160018201805461087190611dc0565b80601f016020809104026020016040519081016040528092919081815260200182805461089d90611dc0565b80156108ea5780601f106108bf576101008083540402835291602001916108ea565b820191906000526020600020905b8154815290600101906020018083116108cd57829003601f168201915b5050505050815260200160028201548152602001600382015481525050905080600001518160200151826040015183606001519450945094509450509193509193565b60606001805461036090611dc0565b610947338383611115565b5050565b610953610f76565b61095c826110f8565b6109785760405162461bcd60e51b815260040161047e90611fae565b600061098383610693565b6001600160a01b0381166000908152600a602052604081209192505b8154811015610a5357848282815481106109bb576109bb611fe5565b906000526020600020015403610a4157815482906109db90600190611ffb565b815481106109eb576109eb611fe5565b9060005260206000200154828281548110610a0857610a08611fe5565b906000526020600020018190555081805480610a2657610a2661200e565b60019003818190600052602060002001600090559055610a53565b80610a4b81611e5d565b91505061099f565b50610a5d846111e3565b837f65032d3cc955c731f4c2a4178f663dbcc6c08e5163bad5a3149773f3894548d384604051610a8d91906119d7565b60405180910390a250505050565b610aa53383610db3565b610ac15760405162461bcd60e51b815260040161047e90611dfa565b610acd84848484611226565b50505050565b610adb610f76565b610ae4826110f8565b610b005760405162461bcd60e51b815260040161047e90611fae565b6000828152600960205260409020610b1b8262015180611e76565b816003016000828254610b2e9190611e8d565b9091555050600381015460405190815283907fcfd9c75cefa17b4e85a91ed9d05ecab5bfe15fde464b2d442f39143895ff88979060200160405180910390a2505050565b6001600160a01b0381166000908152600a6020908152604091829020805483518184028101840190945280845260609392830182828015610bd257602002820191906000526020600020905b815481526020019060010190808311610bbe575b50505050509050919050565b606061034b82611259565b6001600160a01b03918216600090815260056020908152604080832093909416825291909152205460ff1690565b610c1f610f76565b6001600160a01b038116610c845760405162461bcd60e51b815260206004820152602660248201527f4f776e61626c653a206e6577206f776e657220697320746865207a65726f206160448201526564647265737360d01b606482015260840161047e565b610c8d816110a6565b50565b6000610c9b826110f8565b610cb75760405162461bcd60e51b815260040161047e90611fae565b5060009081526009602052604090206003015442111590565b60006001600160e01b03198216632483248360e11b148061034b575061034b82611361565b610cfe816110f8565b610c8d5760405162461bcd60e51b8152602060048201526018602482015277115490cdcc8c4e881a5b9d985b1a59081d1bdad95b88125160421b604482015260640161047e565b600081815260046020526040902080546001600160a01b0319166001600160a01b0384169081179091558190610d7a82610693565b6001600160a01b03167f8c5be1e5ebec7d5bd14f71427d1e84f3dd0314c0f7b2291e5b200ac8c7c3b92560405160405180910390a45050565b600080610dbf83610693565b9050806001600160a01b0316846001600160a01b03161480610de65750610de68185610be9565b80610e0a5750836001600160a01b0316610dff846103e3565b6001600160a01b0316145b949350505050565b826001600160a01b0316610e2582610693565b6001600160a01b031614610e4b5760405162461bcd60e51b815260040161047e90612024565b6001600160a01b038216610ead5760405162461bcd60e51b8152602060048201526024808201527f4552433732313a207472616e7366657220746f20746865207a65726f206164646044820152637265737360e01b606482015260840161047e565b826001600160a01b0316610ec082610693565b6001600160a01b031614610ee65760405162461bcd60e51b815260040161047e90612024565b600081815260046020908152604080832080546001600160a01b03199081169091556001600160a01b0387811680865260038552838620805460001901905590871680865283862080546001019055868652600290945282852080549092168417909155905184937fddf252ad1be2c89b69c2b068fc378daa952ba7f163c4a11628f55a4df523b3ef91a4505050565b6007546001600160a01b0316331461078b5760405162461bcd60e51b815260206004820181905260248201527f4f776e61626c653a2063616c6c6572206973206e6f7420746865206f776e6572604482015260640161047e565b6109478282604051806020016040528060008152506113b1565b610ff3826110f8565b6110565760405162461bcd60e51b815260206004820152602e60248201527f45524337323155524953746f726167653a2055524920736574206f66206e6f6e60448201526d32bc34b9ba32b73a103a37b5b2b760911b606482015260840161047e565b600082815260066020526040902061106e8282611eee565b506040518281527ff8e1a15aba9398e019f0b49df1a4fde98ee17ae345cb5f6b5e2c27f5033e8ce79060200160405180910390a15050565b600780546001600160a01b038381166001600160a01b0319831681179093556040519116919082907f8be0079c531659141344cd1fd0a4f28419497f9722a3daafe3b4186f6b6457e090600090a35050565b6000908152600260205260409020546001600160a01b0316151590565b816001600160a01b0316836001600160a01b0316036111765760405162461bcd60e51b815260206004820152601960248201527f4552433732313a20617070726f766520746f2063616c6c657200000000000000604482015260640161047e565b6001600160a01b03838116600081815260056020908152604080832094871680845294825291829020805460ff191686151590811790915591519182527f17307eab39ab6107e8899845ad3d59bd9653f200f220920489ca2b5937696c31910160405180910390a3505050565b6111ec816113e4565b6000818152600960205260408120906112058282611906565b611213600183016000611906565b5060006002820181905560039091015550565b611231848484610e12565b61123d84848484611424565b610acd5760405162461bcd60e51b815260040161047e90612069565b606061126482610cf5565b6000828152600660205260408120805461127d90611dc0565b80601f01602080910402602001604051908101604052809291908181526020018280546112a990611dc0565b80156112f65780601f106112cb576101008083540402835291602001916112f6565b820191906000526020600020905b8154815290600101906020018083116112d957829003601f168201915b50505050509050600061131460408051602081019091526000815290565b90508051600003611326575092915050565b8151156113585780826040516020016113409291906120bb565b60405160208183030381529060405292505050919050565b610e0a84611525565b60006001600160e01b031982166380ac58cd60e01b148061139257506001600160e01b03198216635b5e139f60e01b145b8061034b57506301ffc9a760e01b6001600160e01b031983161461034b565b6113bb8383611599565b6113c86000848484611424565b61051f5760405162461bcd60e51b815260040161047e90612069565b6113ed81611706565b6000818152600660205260409020805461140690611dc0565b159050610c8d576000818152600660205260408120610c8d91611906565b60006001600160a01b0384163b1561151a57604051630a85bd0160e11b81526001600160a01b0385169063150b7a02906114689033908990889088906004016120ea565b6020604051808303816000875af19250505080156114a3575060408051601f3d908101601f191682019092526114a091810190612127565b60015b611500573d8080156114d1576040519150601f19603f3d011682016040523d82523d6000602084013e6114d6565b606091505b5080516000036114f85760405162461bcd60e51b815260040161047e90612069565b805181602001fd5b6001600160e01b031916630a85bd0160e11b149050610e0a565b506001949350505050565b606061153082610cf5565b600061154760408051602081019091526000815290565b905060008151116115675760405180602001604052806000815250611592565b806115718461179b565b6040516020016115829291906120bb565b6040516020818303038152906040525b9392505050565b6001600160a01b0382166115ef5760405162461bcd60e51b815260206004820181905260248201527f4552433732313a206d696e7420746f20746865207a65726f2061646472657373604482015260640161047e565b6115f8816110f8565b156116455760405162461bcd60e51b815260206004820152601c60248201527f4552433732313a20746f6b656e20616c7265616479206d696e74656400000000604482015260640161047e565b61164e816110f8565b1561169b5760405162461bcd60e51b815260206004820152601c60248201527f4552433732313a20746f6b656e20616c7265616479206d696e74656400000000604482015260640161047e565b6001600160a01b038216600081815260036020908152604080832080546001019055848352600290915280822080546001600160a01b0319168417905551839291907fddf252ad1be2c89b69c2b068fc378daa952ba7f163c4a11628f55a4df523b3ef908290a45050565b600061171182610693565b905061171c82610693565b600083815260046020908152604080832080546001600160a01b03199081169091556001600160a01b0385168085526003845282852080546000190190558785526002909352818420805490911690555192935084927fddf252ad1be2c89b69c2b068fc378daa952ba7f163c4a11628f55a4df523b3ef908390a45050565b606060006117a88361182e565b600101905060008167ffffffffffffffff8111156117c8576117c8611a85565b6040519080825280601f01601f1916602001820160405280156117f2576020820181803683370190505b5090508181016020015b600019016f181899199a1a9b1b9c1cb0b131b232b360811b600a86061a8153600a85049450846117fc57509392505050565b60008072184f03e93ff9f4daa797ed6e38ed64bf6a1f0160401b831061186d5772184f03e93ff9f4daa797ed6e38ed64bf6a1f0160401b830492506040015b6d04ee2d6d415b85acef81000000008310611899576d04ee2d6d415b85acef8100000000830492506020015b662386f26fc1000083106118b757662386f26fc10000830492506010015b6305f5e10083106118cf576305f5e100830492506008015b61271083106118e357612710830492506004015b606483106118f5576064830492506002015b600a831061034b5760010192915050565b50805461191290611dc0565b6000825580601f10611922575050565b601f016020900490600052602060002090810190610c8d91905b80821115611950576000815560010161193c565b5090565b6001600160e01b031981168114610c8d57600080fd5b60006020828403121561197c57600080fd5b813561159281611954565b60005b838110156119a257818101518382015260200161198a565b50506000910152565b600081518084526119c3816020860160208601611987565b601f01601f19169290920160200192915050565b60208152600061159260208301846119ab565b6000602082840312156119fc57600080fd5b5035919050565b80356001600160a01b0381168114611a1a57600080fd5b919050565b60008060408385031215611a3257600080fd5b611a3b83611a03565b946020939093013593505050565b600080600060608486031215611a5e57600080fd5b611a6784611a03565b9250611a7560208501611a03565b9150604084013590509250925092565b634e487b7160e01b600052604160045260246000fd5b600067ffffffffffffffff80841115611ab657611ab6611a85565b604051601f8501601f19908116603f01168101908282118183101715611ade57611ade611a85565b81604052809350858152868686011115611af757600080fd5b858560208301376000602087830101525050509392505050565b600082601f830112611b2257600080fd5b61159283833560208501611a9b565b600080600080600060a08688031215611b4957600080fd5b611b5286611a03565b9450602086013567ffffffffffffffff80821115611b6f57600080fd5b611b7b89838a01611b11565b95506040880135915080821115611b9157600080fd5b611b9d89838a01611b11565b9450606088013593506080880135915080821115611bba57600080fd5b50611bc788828901611b11565b9150509295509295909350565b600060208284031215611be657600080fd5b61159282611a03565b608081526000611c0260808301876119ab565b8281036020840152611c1481876119ab565b604084019590955250506060015292915050565b60008060408385031215611c3b57600080fd5b611c4483611a03565b915060208301358015158114611c5957600080fd5b809150509250929050565b60008060408385031215611c7757600080fd5b82359150602083013567ffffffffffffffff811115611c9557600080fd5b611ca185828601611b11565b9150509250929050565b60008060008060808587031215611cc157600080fd5b611cca85611a03565b9350611cd860208601611a03565b925060408501359150606085013567ffffffffffffffff811115611cfb57600080fd5b8501601f81018713611d0c57600080fd5b611d1b87823560208401611a9b565b91505092959194509250565b60008060408385031215611d3a57600080fd5b50508035926020909101359150565b6020808252825182820181905260009190848201906040850190845b81811015611d8157835183529284019291840191600101611d65565b50909695505050505050565b60008060408385031215611da057600080fd5b611da983611a03565b9150611db760208401611a03565b90509250929050565b600181811c90821680611dd457607f821691505b602082108103611df457634e487b7160e01b600052602260045260246000fd5b50919050565b6020808252602d908201527f4552433732313a2063616c6c6572206973206e6f7420746f6b656e206f776e6560408201526c1c881bdc88185c1c1c9bdd9959609a1b606082015260800190565b634e487b7160e01b600052601160045260246000fd5b600060018201611e6f57611e6f611e47565b5060010190565b808202811582820484141761034b5761034b611e47565b8082018082111561034b5761034b611e47565b601f82111561051f57600081815260208120601f850160051c81016020861015611ec75750805b601f850160051c820191505b81811015611ee657828155600101611ed3565b505050505050565b815167ffffffffffffffff811115611f0857611f08611a85565b611f1c81611f168454611dc0565b84611ea0565b602080601f831160018114611f515760008415611f395750858301515b600019600386901b1c1916600185901b178555611ee6565b600085815260208120601f198616915b82811015611f8057888601518255948401946001909101908401611f61565b5085821015611f9e5787850151600019600388901b60f8161c191681555b5050505050600190811b01905550565b6020808252601a908201527f436572746966696361746520646f6573206e6f74206578697374000000000000604082015260600190565b634e487b7160e01b600052603260045260246000fd5b8181038181111561034b5761034b611e47565b634e487b7160e01b600052603160045260246000fd5b60208082526025908201527f4552433732313a207472616e736665722066726f6d20696e636f72726563742060408201526437bbb732b960d91b606082015260800190565b60208082526032908201527f4552433732313a207472616e7366657220746f206e6f6e20455243373231526560408201527131b2b4bb32b91034b6b83632b6b2b73a32b960711b606082015260800190565b600083516120cd818460208801611987565b8351908301906120e1818360208801611987565b01949350505050565b6001600160a01b038581168252841660208201526040810183905260806060820181905260009061211d908301846119ab565b9695505050505050565b60006020828403121561213957600080fd5b81516115928161195456fea26469706673582212207d5fc0a128bef8bb918268dfb8986244e5bd52742521fdc633ef3be5c17d79fe64736f6c63430008130033",
  "linkReferences": {},
  "deployedLinkReferences": {}
}